:100000000C942A000C9447000C943B040C94470079
:100010000C9447000C9447000C9447000C94470044
:100020000C9447000C9447000C9447000C94D704A0
:100030000C9447000C9447000C9447000C94470024
:100040000C943F030C9447000C9447000C94470019
:100050000C94470011241FBECFE5D8E0DEBFCDBF12
:1000600010E0A0E6B0E0E8E9FAE002C005900D92E9
:10007000AA37B107D9F720E0AAE7B0E001C01D9286
:10008000A738B207E1F70E940D030C944A050C94BF
:10009000000080917B008F5F80937B008E3379F42A
:1000A00080918100813049F480918200811105C0E6
:1000B00080917A008F5F80937A0010927B0080910C
:1000C0007A008A3029F481E08093820010927A00CD
:1000D0000895CF93DF9300D000D000D0CDB7DEB726
:1000E0000E947E010E94B4020E94370486E0E0E68E
:1000F000F0E0DE01119601900D928A95E1F7CE01B4
:1001000001960E94640489E490E00E94D20467E0B2
:1001100081E00E94120341E063E081E00E946D03F0
:1001200081E00E94C80226960FB6F894DEBF0FBE8B
:10013000CDBFDF91CF91089580E00E942E03809182
:100140008300909184008A30910518F41092810008
:1001500007C04C9710F481E001C082E080938100D9
:1001600087EA91E60197F1F700C0000080918100D5
:1001700081110FC00E94F6020E94530286E690E0B1
:100180000E943D0210927C001092820080E00C944C
:10019000BC04813019F590917C00911104C096EF58
:1001A00092BF80937C0080918200813039F480E09E
:1001B0000E94F6028AE00E94BC0403C080E00E9414
:1001C000DF020E9453028AE690E00E943D026091A5
:1001D0007A0070E080E090E00C9456020E94530296
:1001E00080E790E00E943D0280E00E94F60280E0FD
:1001F0000E94BC0410927C00109282000895CF935C
:10020000C82F40E063E080E00E94D2038FE99FE0C6
:100210000197F1F700C00000C4FB442740F960E0FB
:1002200081E00E94D203C5FB442740F961E081E0F0
:100230000E94D203C6FB442740F962E081E00E949D
:10024000D2034C2F441F4427441F64E081E00E94E6
:10025000D2038FE99FE00197F1F700C0000041E071
:1002600062E080E00E94D2038FE99FE00197F1F7FE
:1002700000C0000040E062E080E00E94D2038FE90D
:100280009FE00197F1F700C000004C2F417060E043
:1002900081E00E94D203C1FB442740F961E081E084
:1002A0000E94D203C2FB442740F962E081E00E9431
:1002B000D203C3FB442740F964E081E00E94D203EB
:1002C0008FE99FE00197F1F700C0000041E062E094
:1002D00080E00E94D2038FE99FE00197F1F700C010
:1002E000000040E062E080E00E94D2038FE19EE4E3
:1002F0000197F1F700C00000CF91089541E063E05D
:1003000080E00E946D0341E062E080E00E946D03A6
:1003100041E060E081E00E946D0341E061E081E046
:100320000E946D0341E062E081E00E946D0341E0C4
:1003300064E081E00E946D038FE99FE00197F1F78F
:1003400000C0000088E20E94FF008FE99FE0019753
:10035000F1F700C0000081E00E94FF008FE99FE0FC
:100360000197F1F700C000008FE00E94FF008FE9C5
:100370009FE00197F1F700C000000895CF93C82FC8
:1003800041E063E080E00E94D2038FE99FE00197A3
:10039000F1F700C00000C4FB442740F960E081E0B1
:1003A0000E94D203C5FB442740F961E081E00E942E
:1003B000D203C6FB442740F962E081E00E94D203E9
:1003C0004C2F441F4427441F64E081E00E94D20365
:1003D0008FE99FE00197F1F700C0000041E062E083
:1003E00080E00E94D2038FE99FE00197F1F700C0FF
:1003F000000040E062E080E00E94D2038FE99FE0CD
:100400000197F1F700C000004C2F417060E081E0DF
:100410000E94D203C1FB442740F961E081E00E94C1
:10042000D203C2FB442740F962E081E00E94D2037C
:10043000C3FB442740F964E081E00E94D2038FE9C6
:100440009FE00197F1F700C0000041E062E080E02A
:100450000E94D2038FE99FE00197F1F700C00000EE
:1004600040E062E080E00E94D2038FE19EE40197C9
:10047000F1F700C00000CF9108950F931F93CF9321
:10048000DF93EC018C010B5E1F4F8991882331F0C3
:100490000E94BE01C017D107C1F781E0DF91CF9163
:1004A0001F910F91089581E00C94FF008F929F920D
:1004B000AF92BF92EF92FF921F93CF93DF93CDB78E
:1004C000DEB72A970FB6F894DEBF0FBECDBF611519
:1004D00071058105910591F480E32A960FB6F89491
:1004E000DEBF0FBECDBFDF91CF911F91FF90EF9088
:1004F000BF90AF909F908F900C94BE0110E03AE0B7
:10050000832E912CA12CB12CEE24E394F12CEC0E33
:10051000FD1EE10EF11CA50194010E942805605DFD
:10052000F70160831F5FB901CA016115710581057B
:10053000910551F7112341F0FE01E10FF11D80817A
:100540000E94BE011150F6CF2A960FB6F894DEBF76
:100550000FBECDBFDF91CF911F91FF90EF90BF9065
:10056000AF909F908F90089541E064E080E00E94FA
:100570006D0341E067E081E00E946D0341E065E0CA
:1005800080E00E946D0341E066E080E00C946D0322
:10059000813069F028F0823069F0833021F00895CD
:1005A00040E064E009C040E067E081E006C040E070
:1005B00065E002C040E066E080E00C946D038130AD
:1005C00069F028F0823069F0833021F0089541E02D
:1005D00064E009C041E067E081E006C041E065E019
:1005E00002C041E066E080E00C94D203813069F003
:1005F00028F0823069F0833021F0089540E064E013
:1006000009C040E067E081E006C040E065E002C06C
:1006100040E066E080E00C94D2030E9469000E94F2
:100620009C00FDCF8330B0F4813039F0823019F472
:100630003E9A3F9A04C03E9801C03E9A3F9886B1C8
:10064000887F86B9683040F486B1682B66B9379ADE
:1006500082E0089580E0089581E0089597B1907E4A
:1006600097B9883050F497B1907E97B997B1892B9C
:1006700087B9369A339A85E0089589E008951F92E4
:100680000F920FB60F9211242F933F934F935F93C6
:100690006F937F938F939F93AF93BF9324B135B1A3
:1006A00044E6429FC001439F900D11246FEF73E019
:1006B0000E9400057093840060938300BF91AF9106
:1006C0009F918F917F916F915F914F913F912F916A
:1006D0000F900FBE0F901F901895442379F1413071
:1006E00009F05FC0813079F028F08230A9F08330C2
:1006F000E1F008952AB381E090E001C0880F6A9587
:10070000EAF7822B2CC027B381E090E001C0880F6C
:100710006A95EAF7822B2EC024B381E090E001C0F5
:10072000880F6A95EAF7822B30C021B381E090E010
:1007300001C0880F6A95EAF7822B32C0813089F0B8
:1007400028F08230C9F0833011F108952AB381E096
:1007500090E001C0880F6A95EAF7809582238ABBF2
:10076000089527B381E090E001C0880F6A95EAF709
:100770008095822387BB089524B381E090E001C077
:10078000880F6A95EAF78095822384BB089521B388
:1007900081E090E001C0880F6A95EAF78095822396
:1007A00081BB0895442379F1413009F05FC0813065
:1007B00079F028F08230A9F08330E1F008952BB36E
:1007C00081E090E001C0880F6A95EAF7822B2CC087
:1007D00028B381E090E001C0880F6A95EAF7822B88
:1007E0002EC025B381E090E001C0880F6A95EAF73A
:1007F000822B30C022B381E090E001C0880F6A955F
:10080000EAF7822B32C0813089F028F08230C9F0BB
:10081000833011F108952BB381E090E001C0880F7F
:100820006A95EAF7809582238BBB089528B381E00F
:1008300090E001C0880F6A95EAF78095822388BB13
:10084000089525B381E090E001C0880F6A95EAF72A
:100850008095822385BB089522B381E090E001C09A
:10086000880F6A95EAF78095822382BB08958FB737
:1008700080688FBF08951F920F920FB60F921124B8
:100880002F933F934F935F936F937F938F939F9398
:10089000AF93BF93EF93FF93E0917D00F0917E00C3
:1008A000309709F00995FF91EF91BF91AF919F911A
:1008B0008F917F916F915F914F913F912F910F9009
:1008C0000FBE0F901F901895FC0183B78F7783BFE1
:1008D0009081892F877F823008F045C083B7282F09
:1008E000277B38E0939FC0011124822B83BF818135
:1008F0008830A8F593B7987F892B83BF80818823A0
:1009000031F18130A1F49481943078F483B7282FA9
:100910002F7C30E1939FC0011124822B83BF12BE34
:1009200083818CBF89B7826016C082E019C089308C
:10093000E1F49581943088F483B7282F2F7C30E13F
:10094000939FC0011124822B83BF12BE1CBE8281E3
:1009500082BF89B7816089BF08C083E001C081E0A0
:100960008093850002C01092850081E090918500FF
:10097000911101C080E00895853650F42FEF829FD9
:10098000C001112464E670E00E9414056CBF03C02E
:1009900086E08093860081E090918600911101C0ED
:1009A00080E008959093800080937F0008951F92C7
:1009B0000F920FB60F9211242F933F934F935F9393
:1009C0006F937F938F939F93AF93BF93EF93FF9317
:1009D000E0917F00F0918000309709F00995FF9138
:1009E000EF91BF91AF919F918F917F916F915F91A7
:1009F0004F913F912F910F900FBE0F901F90189520
:100A0000AA1BBB1B51E107C0AA1FBB1FA617B70734
:100A100010F0A61BB70B881F991F5A95A9F7809550
:100A20009095BC01CD01089597FB072E16F4009414
:100A300007D077FD09D00E94000507FC05D03EF4E1
:100A4000909581959F4F0895709561957F4F08957A
:100A5000A1E21A2EAA1BBB1BFD010DC0AA1FBB1FC2
:100A6000EE1FFF1FA217B307E407F50720F0A21B34
:100A7000B30BE40BF50B661F771F881F991F1A94A1
:100A800069F760957095809590959B01AC01BD01CB
:080A9000CF010895F894FFCF97
:100A98000905000000024F464600524541445900EE
:0A0AA80049474E4954494F4E0000E3
:00000001FF
